:100000000C94EF020C940C030C940C030C94332806
:100010000C940C030C940C030C940C030C940C0324
:100020000C940C030C940C030C947B220C9437223C
:100030000C9478230C940C030C940C030C940C0378
:100040000C940C030C940C030C940C030C940C03F4
:100050000C940C030C9454230C940C030C940C037C
:100060000C940C030C940C030C940C030C940C03D4
:100070000C940C030C940C030C940C030C940C03C4
:100080000C940C030C940C030C940C030C940C03B4
:100090000C940C030C940C030C940C030C940C03A4
:1000A0000C940C030C940C030C940C0329001E00FC
:1000B0001F00200021002200000000002B0014007F
:1000C0001A0008001500170000000000E0000400FE
:1000D0001600070009000A0000000000E1001D00F2
:1000E0001B0006001900050000000000000021525E
:1000F000E200E3002C0000000000000023002400C8
:100100002500260027002D002E0031001C001800BD
:100110000C00120013002F00300035000B000D0002
:100120000E000F003300340028002A0011001000D8
:10013000360037003800E500215200002800E700B3
:100140000000E600010000000000000062523A00DA
:100150003B003C003D003E000000000001000100AB
:100160000100010001000100000000000100010089
:100170000100010001000100000000000100010079
:10018000010001000100010000000000000001006A
:100190000100010001000000000000003F004000DD
:1001A00041004200430044004500490001000100B5
:1001B000460047004800010001004C00500051007B
:1001C00052004F000100010001002A00010001005F
:1001D0004D004E000100010001000000010001007F
:1001E00000007800010000000000000062520000E2
:1001F00000000000000000000000000000000000FF
:1002000000000000000000000000000000000000EE
:1002100000000000000000000000000000000000DE
:1002200000000000000000000000000000000000CE
:1002300000000000000000000000000000000000BE
:10024000000000000000000000000000407E0000F0
:1002500000000000000000000000007C20782178F1
:10026000000000000000000000000000287827784F
:10027000247823782678257800000000000000000C
:100280000000780000000000000000001E0F0500C4
:10029000047F3F1F643214643214783C1E1E140A1B
:1002A0000500010101010101010101020202020236
:1002B000020202020303030303030303040404040E
:1002C00004040405050505050606060606070707D6
:1002D000070708080808090909090A0A0A0B0B0B8D
:1002E0000C0C0C0D0D0D0E0E0E0F0F0F101011112A
:1002F00011121213131414151516161717181819AE
:10030000191A1A1B1B1C1D1D1E1E1F202021222214
:10031000232424252626272829292A2B2C2D2D2E57
:100320002F30313232333435363738393A3B3C3D71
:100330003E3F404142434445464748494A4C4D4E62
:100340004F50515354555658595A5B5D5E5F616228
:1003500064656668696B6C6D6F7072737577787AB7
:100360007B7D7E8082838587888A8C8E8F91939512
:1003700096989A9C9EA0A2A3A5A7A9ABADAFB1B336
:10038000B5B7BABCBEC0C2C4C6C9CBCDCFD1D4D616
:10039000D8DBDDDFE2E4E7E9EBEEF0F3F5F8FAFDB8
:1003A000FFFFAA7F55402223252628292A2C2D2FFE
:1003B0003032333536383A3B3D3E4042434547497B
:1003C0004A4C4E5051535557595A5C5E60626466B0
:1003D00068696B6D6F71737577797B7D7F818385BC
:1003E00087898A8C8E90929496989A9C9E9FA1A3BE
:1003F000A5A7A8AAACAEAFB1B3B4B6B8B9BBBCBEE2
:10040000BFC1C2C3C5C6C7C9CACBCCCDCED0D1D25D
:10041000D2D3D4D5D6D7D7D8D9D9DADADBDBDBDC5F
:10042000DCDCDCDCDDDDDDDDDCDCDCDCDCDBDBDB0B
:10043000DADAD9D9D8D7D7D6D5D4D3D2D2D1D0CE6B
:10044000CDCCCBCAC9C7C6C5C3C2C1BFBEBCBBB970
:10045000B8B6B4B3B1AFAEACAAA8A7A5A3A19F9EEE
:100460009C9A98969492908E8C8A89878583817FB6
:100470007D7B79777573716F6D6B69686664626097
:100480005E5C5A5957555351504E4C4A4947454363
:1004900042403E3D3B3A3836353332302F2D2C2A00
:1004A00029282625232205010902A1018502090127
:1004B000A1000509190129081500250195087501F4
:1004C00081020501093009311581257F95027508E2
:1004D000810609381581257F950175088106050C6F
:1004E0000A38021581257F950175088106C0C0056F
:1004F000010980A101850319012AB700150126B75A
:1005000000950175108100C0050C0901A101850449
:1005100019012AA002150126A0029501751081007B
:10052000C005010906A101050719E029E715002505
:10053000019508750181029501750881010507196A
:100540000029FF150026FF009506750881000508A3
:100550001901290595057501910295017503910110
:10056000C009023B00020100A0C809040000010309
:10057000010100092111010001224000070581034A
:100580000800010904010001030000000921110114
:100590000001227B000705820320000112010002F6
:1005A00000000008D8045FEB0700010200010A0305
:1005B000370073006B00620000001E0353006100EF
:1005C0006C006900630079006C00690063005F00E3
:1005D0004100630069006400000004030904112461
:1005E0001FBECFEFDAE0DEBFCDBF23E0AAEBB1E064
:1005F00001C01D92AB34B207E1F711E0A0E0B1E019
:10060000E6E4F7E502C005900D92AA3BB107D9F7E1
:100610000E949F230C944D2B0C940000482F209196
:100620001B039091E20257E0291302C080E0089575
:1006300030E0529FF001539FF00D1124ED51FD4F1A
:100640008181681306C08081481303C085818111B0
:10065000EECF2F5F3F4F2770E7CFFC01AC014B5F20
:100660005F4F8FEF91E32191822728E030E087FFF1
:1006700009C0880F892721503109C9F7E417F50708
:1006800091F70895880FF7CFE8EDF0E080818E7F35
:1006900080831092E2001092DA001092E100A0EE46
:1006A000B0E08C9181608C9380818F77808319BCBE
:1006B000A7EDB0E08C918E7F8C9380818F7E8083BC
:1006C0001092CB0208952091E4003091E50095E668
:1006D000A9012091EC00822F817020FF06C080913B
:1006E000E80080FF06C080E008952091E80022FD28
:1006F0001AC08091D802882389F0853089F08091D2
:10070000EB0085FD0FC02091E4003091E500421719
:100710005307F9F29150E1F684E0089582E00895DC
:1007200083E0089581E008958091DA0287FF13C085
:100730008091E80082FF06C08091E8008B7780936B
:10074000E80004C08091D8028111F2CF0895809111
:10075000D8028823D9F38091E80080FFF8CF8091F8
:10076000E8008E77ECCF982F9093E900242F762F16
:1007700050E0891731F07091EC002091ED0050911C
:10078000F00021FD07C09F5F973071F78093E9006B
:1007900081E008953091EB003E7F3093EB00309183
:1007A000ED003D7F3093ED003091EB0031603093F0
:1007B000EB007093EC002093ED005093F00020913B
:1007C000EE0027FDE0CF80E00895B0E0A0E0EBEE82
:1007D000F3E00C945929C8EDD0E088818F7E88839E
:1007E000E7EDF0E080818160808384E082BF81E07A
:1007F0008093CB0288818E7F888302EE10E0F8011F
:1008000010821092DA0081EEC82ED12CF6011082EF
:1008100088818F77888388818068888388818F7DAD
:10082000888319BC1092D8021092D9021092D70274
:100830001092D60290EEE92EF12CF70180818B7F89
:10084000808388818160888342E060E080E00E944C
:10085000B303F60180818E7F8083F80180818160FF
:100860008083808188608083F70180818E7F808390
:10087000888180618883CDB7DEB7E8E00C94752964
:10088000FC018091E0029091E10286179707A0F0A9
:100890006115710529F49091E8009E779093E80026
:1008A00090E06115710551F4911108C08091E80044
:1008B00082FF34C080E00895BC01F2CF8091D8025D
:1008C0008823C1F18530C1F18091E80083FD30C0FB
:1008D0008091E80082FDEACF8091E80080FFE1CFBF
:1008E0008091F3002091F200382F6115710519F005
:1008F0002830310558F091E02830310509F090E0BA
:100900002091E8002E772093E800CBCF819180934F
:10091000F100615071092F5F3F4FE7CF8091D802FE
:10092000882341F0853041F08091E80083FFBECFFD
:1009300081E0089582E0089583E008958091CD02DA
:1009400008959C014FB7F8948091C7029091C80216
:10095000A091C902B091CA024FBF821B930B0895A8
:100960002FB7F8946091C7027091C8028091C902B4
:100970009091CA022FBF08952FB7F8948091C702B3
:100980009091C802A091C902B091CA022FBF0895E8
:10099000A3E0B0E0EEECF4E00C945F292091C402F7
:1009A0003091C50228173907A1F09093C5028093B2
:1009B000C402E091C202F091C302309751F024E0EA
:1009C00029839B838A830680F781E02DCE010196DF
:1009D00009952396E2E00C947B29A3E0B0E0E3EFD5
:1009E000F4E00C945F292091C0023091C1022817D5
:1009F0003907A1F09093C1028093C002E091C20236
:100A0000F091C302309751F023E029839B838A83BE
:100A10000680F781E02DCE01019609952396E2E04C
:100A20000C947B29FA01811101C0FB0109950895FD
:100A30000895ECE7F2E01182828184608283089558
:100A400080914303982F9E7F61F481708260809330
:100A5000430380914603853B18F084EB8093460363
:100A600008958635B0F381708465F1CFAF92BF925F
:100A7000DF92EF92FF920F931F93CF93DF93182F84
:100A8000062FE901453B08F044EBE42FF0E0EF5579
:100A9000FD4F011110C0E4915E2F4E2F4983E88372
:100AA0005A83DF91CF911F910F91FF90EF90DF90CC
:100AB000BF90AF900895202F30E04491D42EE42EC3
:100AC000F12C56E0159FC0011124EFEFF0E0BF01BB
:100AD0000E94A029812F90E0880F991F55E5569F0D
:100AE000D001579FB00D11248A1B9B0B982F990F93
:100AF000890F5F01A21AB30AAE9CD001AF9CB00D62
:100B0000BE9CB00D11245B2F089F80011124012F82
:100B100011275F01A01AB10AAE9C8001AF9C100D95
:100B2000BE9C100D11245F01A81AB108A29EC0013D
:100B3000A39E900DB29E900D1124892F9927E81B3A
:100B4000F90BEE9DC001EF9D900DFE9D900D1124BF
:100B5000E92F62307105A1F050F46115710509F4B7
:100B60009DCF6130710581F0EB2F512F97CF64300D
:100B7000710569F080F06630710509F48FCFF4CF0C
:100B8000E42F4B2F592F8ACFE42F412F87CFEB2F04
:100B9000542F492F83CF4B2F5D2DE12F7FCF0E9404
:100BA000BC049C019091720280917302982B21F0F9
:100BB00030936F0220936E029091740280917502BF
:100BC000982B21F030936D0220936C02E091C202C9
:100BD000F091C302309749F082E080937002048064
:100BE000F581E02D80E792E00995089580916B02F0
:100BF00080FF0CC06091320170E075956795759526
:100C000067956115710549F1862F089581FF06C02A
:100C10006091320170E075956795F3CF6091320174
:100C200082FD0BC090916A029923A1F0609131017D
:100C300080913201961738F0682F70E060387105A6
:100C400000F38FE70895899FC001112470E00E948E
:100C5000B429F4CF61E070E0D7CF81E008958091AE
:100C60006B0280FF0DC06091300170E0660F771F4E
:100C70006038710570F56115710569F1862F089569
:100C800081FF07C06091300184E0689FB0011124AA
:100C9000EFCF82FF04C06091300188E0F6CF8091F1
:100CA0006902882399F020912F0160913001821709
:100CB000A0F7869FC001112433E0880F991F3A9551
:100CC000E1F7622F70E00E94B429D2CF68E070E0B3
:100CD000D5CF8FE7089581E0089580E00895F894D6
:100CE000E82FE295EF70F0E031A1282F2F7081E01E
:100CF00090E001C0880F2A95EAF7982F90959323EA
:100D000091A392A1892B82A37894089590914E0289
:100D100092FF06C0282F28712830F9F4877F84605D
:100D200093FF06C0282F28712831F1F4877E846153
:100D300020914F0220FF06C0382F38713830D9F487
:100D4000877F816021FF06C0282F28712831D1F4C8
:100D5000877E816194FD877E0895282F2471243039
:100D6000F9F68B7F8860DCCF282F2471243101F7BE
:100D70008B7E8861DDCF382F3171313019F78E7F4E
:100D80008860E0CF282F2171213121F78E7E886184
:100D9000E1CF82389105B9F1B0F48133910509F4BE
:100DA0007DC048F48932910509F46DC08A329105FD
:100DB00009F47BC008958533910509F45FC0893338
:100DC000910509F10895833E9105D9F138F4803EEB
:100DD000910529F1823E910579F10895863E9105AC
:100DE000D9F1873E910509F43EC0843E910541F555
:100DF00020914F0221FF24C080914E0284FD19C032
:100E000087EE90E0089520914E02237009F05AC0B9
:100E100020914F0223FF14C089E290E008952091B1
:100E20004E0220FD38C030914F0230FF09C024FF30
:100E300043C090E080E0089520914E0222FDF7CF5C
:100E4000089520914E0222FD3AC030914F0230FDAC
:100E500039C024FFF5CFEDCF20914E0223FFF0CF14
:100E600024FDE7CFCDCF20914E0223FD2EC030913F
:100E70004F0231FFEECF84EE90E0089520914E02B4
:100E800025FFDECFC9CF20914E0225FD21C0209144
:100E90004F0223FFD5CF89E390E0D2CF20914E02BD
:100EA00026FFCECF8AE290E0089520914E0226FFE1
:100EB000C7CF81E390E0089583EE90E0089582EE3D
:100EC00090E0089580EE90E0089586EE90E0089519
:100ED00085E390E008957A30C8F46830B8F4833040
:100EE000C0F4E72FF0E09AE0899FE00DF11D112496
:100EF00083E0EE0FFF1F8A95E1F7E60FF11DEE0F7D
:100F0000FF1FE455FF4F85919491089580E090E094
:100F1000089581E0FCCF1F93CF93DF930E94C90611
:100F2000EC01C11580E5D807F0F5C11580E4D807BC
:100F300008F09CC0C03ED10520F5CD3CD10508F09D
:100F400082C0C83AD10578F4C53AD10508F073C01B
:100F5000C130D10519F1209709F1C430D105F0F461
:100F6000D0E0C0E01BC0C33CD105D0F7C85AD0E0E8
:100F7000CC0FDD1FC65BDE4F0990D881C02DD46435
:100F80000DC0C11580E2D80708F0D1C0C11581E0BD
:100F9000D80708F05AC0C83ED10510F7CE01DF913E
:100FA000CF911F910895C03682E5D80718F5C03457
:100FB00082E5D80708F06BC0C03282E5D80708F098
:100FC0005FC0C11582E5D80708F497C02C2F26957D
:100FD000269580E2289F900111248C2F8370C1E018
:100FE000D0E002C0CC0FDD1F8A95E2F7C22BD32BD5
:100FF000DD68D4CFC03A82E5D80760F4C03882E516
:10100000D80708F459C0CF71D0E0DC2FCC27C46FCB
:10101000D06AC4CFC03C82E5D80708F462C0C03EA5
:1010200082E5D80708F09CCFDC2FCC27CC27DF71D6
:10103000C06FD06AB3CFC55AD0E0C95BDE4FC8815C
:10104000D0E0D064ABCFD065A9CF8D2F0E948606AB
:10105000182FCE0199270E94C906C12FD0E0DC2F9E
:10106000CC27CC27DF71C82BD92B98CFCE0199275D
:101070000E94C906CC27DF70C82BD92BD06A8ECF2F
:10108000CF71D0E0DC2FCC27C16FD06A87CF2C2F57
:1010900026952695277080E2289F900111248C2F99
:1010A0008370C1E0D0E002C0CC0FDD1F8A95E2F76B
:1010B000C22BD32BDC6872CF2C2F26952695277058
:1010C00080E2289F900111248C2F8370C1E0D0E032
:1010D00002C0CC0FDD1F8A95E2F7C22BD32BDA6852
:1010E0005DCF8C2F8F710E948606C82FD0E0DC2F39
:1010F000CC27CC27DF71D06251CF8C2F8F710E940B
:10110000860655E0D695C7955A95E1F7CF70D0E0A1
:10111000DC2FCC27282F30E084FF05C044E0220FCD
:10112000331F4A95E1F7C22BD32BD06937CF8D2FD0
:101130008F710E948606182FCE0199270E94C9063A
:10114000C12FD0E0DC2FCC27CC27DF71C82BD92BC7
:10115000D2CF80959091050298239093050208952F
:10116000EEEBF1E09191891303C0DF0111971C921E
:1011700091E0E43CF907B1F70895AEEBB1E0EFEF91
:1011800090E02D91821751F0EF3F19F4211101C029
:10119000E92F9F5F9630A9F7EF3F09F408950E2ECF
:1011A000000CFF0BE454FE4F8283089580911B03D3
:1011B0009091E202981301C008958F5F8770FACF73
:1011C000B0E0A0E0E6EEF8E00C9458297C01009134
:1011D0004C0210914D028091060290910702082B5B
:1011E000192BCFE0D0E0CC24C394D12CBC2EC60167
:1011F0000C2E02C0880F991F0A94E2F780239123D6
:10120000892B49F4219790F7B12C8B2DCDB7DEB700
:10121000E9E00C947429B7018C2F0E946B070E949F
:101220008B07019779F3F1CFCF93DF93EC010E9405
:10123000E008BE010E946B070E948B07DF91CF91EF
:1012400008959A3070F5883060F528E0929FF0019B
:101250001124E80FF11D6E2F677083E0F695E79576
:101260008A95E1F7EE0FFF1FEE0FFF1FE553FE4FCC
:1012700050E040E080E0219130E0062E02C036953B
:1012800027950A94E2F721703327042E01C0220F1C
:101290000A94EAF7822B4F5F5F4F4430510559F7AC
:1012A000089580E008959A3090F5883080F528E020
:1012B000929FF0011124E80FF11D2E2F277041E0BD
:1012C00001C0440F2A95EAF783E0F695E7958A95E1
:1012D000E1F7EE0FFF1FEE0FFF1FE553FE4F30E06B
:1012E00020E070E05191DF011197CB01022E02C086
:1012F000969587950A94E2F78170819585278423D6
:1013000085278C932F5F3F4F2430310559F708957F
:1013100090930702809306020895FC012481222302
:10132000C1F0808191810E94140992959F7096303E
:1013300091F058F4925F9F70923058F4803F19F00A
:1013400030F4883E30F481E008959A5FF4CF843F12
:10135000D1F380E00895883EB0F3813FD1F7F3CF19
:10136000662309F45DC08D3C41F40E942F068195EF
:10137000809373020E94CF0508958E3C19F40E9459
:101380002F06F6CF8F3C31F40E942F068195809373
:101390007202F0CF803D19F40E942F06F8CF893DEC
:1013A00029F40E94F60580937402E4CF8A3D21F46B
:1013B0000E94F6058195F7CF8B3D31F40E94F6052A
:1013C000819580937502D6CF8C3D19F40E94F60565
:1013D000F8CF9FE2980F983070F4815D990B21E06F
:1013E00030E001C0220F8A95EAF780917102822BCA
:1013F00080937102BFCF8D3D31F480916B0281608B
:1014000080936B02B7CF8E3D21F480916B02826096
:10141000F7CF8F3D09F0AECF80916B028460F0CFA3
:10142000409172028D3C59F48091730287FF0DC088
:101430001092730241110BC01092690208C08E3CD9
:1014400081F48091730218169CF3442381F08091FB
:10145000740290917502892B09F08CCF10926A0268
:1014600089CF8F3C49F447FFF0CF109272028091F0
:1014700073028111ECCFE0CF803D19F41416ACF368
:10148000E4CF90917402893D29F41916F4F6109274
:101490007402DBCF8A3D19F497FFD7CFF8CF909134
:1014A00075028B3D29F497FFD0CF10927502CDCFF6
:1014B0008C3D19F41916CCF3C8CF9FE2980F9830E1
:1014C00090F4815D990B21E030E0B90102C0660F14
:1014D000771F8A95E2F7CB0180959091710289235D
:1014E00080937102B2CF8D3D31F480916B028E7F7B
:1014F00080936B02AACF8E3D21F480916B028D7F89
:10150000F7CF8F3D09F0A1CF80916B028B7FF0CF99
:10151000A6E0B0E0EEE8FAE00C945E2949835A8335
:1015200049815A819923A1F0222391F0CA010E9496
:10153000E008182F682F89819A810E9453096981D8
:101540007A81812F0E946B072696E3E00C947A291A
:10155000CA010E942109182FF2CF0F931F93CF9336
:10156000DF938B01EA019091D802943061F580936A
:10157000E9008FEF9091E800815095FD06C095ED50
:101580009A95F1F700008111F5CF8091E80085FF71
:101590001AC00E946303811111C08091E80085FD8B
:1015A00006C08091E8008E778093E800F2CFF801C2
:1015B00081918F018093F100219779F78091E80064
:1015C0008E778093E800DF91CF911F910F9108955E
:1015D00043E050E0BC0182E00E94AD0A089546E07D
:1015E00050E0BC0182E00E94AD0A0895CF93DF93E2
:1015F000EC0148E050E0BC0181E00E94AD0A88E0C7
:10160000FE01AEECB2E001900D928A95E1F7DF9118
:10161000CF910895609142018091430380FF20C0E3
:101620008091410143E0849FC0011124815E9C4F61
:10163000539A2BB1277F3BB138605FB7F894FC0118
:10164000649FE00DF11D1124BF0168177907D1F4E3
:101650005FBF8FE594E00197F1F700C000000895A7
:10166000809143019091440123E0829FF001112475
:10167000E15EFC4F8917A0F61182108212828F5F03
:101680003396F8CFFC014191CF01E8E03BB900006F
:1016900000C047FF2BB9440F000000C000C000C0CD
:1016A0002BB900C0EA9591F7D0CFA3E0B0E0EBE50D
:1016B000FBE00C945F299091430390FF10C09E01C2
:1016C0002F5F3F4F0E9436058B8199812A8120939D
:1016D000200390931F03809321030E940A0B2396FB
:1016E000E2E00C947B29CF93DF93D82FC92F892F69
:1016F00090E028E0009719F48D2F9C2F20E0AC019A
:1017000074E0569547957A95E1F74115510511F02A
:101710002C5FCA01AC0156954795569547954115E2
:10172000510511F02E5FCA0196958795892B09F016
:101730002F5F4FEF6FEF8AEA213041F04FEF6FEFED
:101740008FEB223019F040E060E080E00E94550B02
:1017500081E0809343018CE0809344018BE080938F
:1017600045018D2F9C2FDF91CF9108950E94730B1F
:1017700090934D0280934C02089521E030E002C026
:10178000220F331F8A95E2F72095309580914C0205
:1017900090914D02822393230E94B60B089590915D
:1017A000FA01809589238093FA01282F277069F424
:1017B000891759F090914F0292FF07C08695869540
:1017C00086950E94BD0B1092FA01089521E030E049
:1017D00002C0220F331F8A95E2F780914C0290914C
:1017E0004D02822B932B0E94B60B08950F931F93EB
:1017F000CF93DF93EC0110E000E09091450190174A
:10180000110609F06CF40E940A0B8C8190E001969D
:10181000817099278C83DF91CF911F910F9108954B
:1018200020914301A801420F511D9A01220F331F3D
:10183000240F351F215E3C4F4C8160914503809100
:10184000440396959017110651F04CF0442349F04B
:10185000409146030E9436050F5F1F4FCECF4423B1
:10186000B9F340E0F7CFB0E0A0E0E9E3FCE00C948E
:101870005529EC014C81042F10E09801D8010E94F9
:101880003E2B9B01AC010E94092B4B015C01E0E265
:10189000F0E0E01BF10BA5E5B0E0AC019B010E947C
:1018A000092B6B017C019F01DF010E94CE299B0166
:1018B000AC010E94142B9B01AC01280D391D4A1D5F
:1018C0005B1DC701B6010E941C2BF22E822F90E0F7
:1018D00039E23F1520F143E0249F90011124359512
:1018E0002795122F109500E085E5E82EEF188091DE
:1018F0004501081718F10E940A0B9C8181E0992389
:1019000019F0903219F48FEF8093400180914001DB
:10191000890F8C83CDB7DEB7ECE00C94712925E5F7
:1019200030E0B901681B790B9B01220F331F260F92
:10193000371F37FFD4CF2F5F3F4FD1CF8E2D01FD03
:101940008F2D20914301622F600F7727771F9B0116
:10195000220F331F260F371F215E3C4F412F60910E
:1019600045030E9436050F5FC2CFEF92FF920F939F
:101970001F93CF93DF93EC018C81811109C081E02B
:101980008C831092800292E090933F0180933E01FD
:10199000809143019091440123E0829FF001112442
:1019A000E15EFC4F891758F110E003E060914501BA
:1019B000161758F10E940A0B80913E012091800277
:1019C000280F2093800290913F01980F90933F0140
:1019D000191654F4022E000C330B4091450141506E
:1019E000550B2417350734F0819580933E018130E3
:1019F00009F41C82CDB7DEB7E6E00C94772911829A
:101A0000108212828F5F3396CDCFE12EF12C70E0E1
:101A1000C7010E94B42920914301820F482F50E052
:101A200020918002022E000C330BE216F306BCF06C
:101A300020913F01022E000C330B2E153F057CF048
:101A4000809F90011124215E3C4F4091460360919C
:101A50004503809144030E9436051F5FA7CFFA011A
:101A6000EE0FFF1FE40FF51FE15EFC4F11821082A5
:101A70001282F3CFB0E0A0E0E0E4FDE00C94552941
:101A8000EC018A81BB24BA9480FD02C0BB24B394CC
:101A9000A09045018C81811109C081E0B81220C05D
:101AA0008FEF8A0D80937F0281E08C83F12CE12CF3
:101AB0004CE0942EEA14B8F00E940A0B80917F0249
:101AC00091E0B91257C0811150C0809145018150F9
:101AD00080937F021C82CDB7DEB7ECE00C947129B5
:101AE00010927F02E1CF009143010E0D1F2D111DB9
:101AF000C801880F991F080F191F015E1C4FF801BC
:101B000011821082128234E0C32ED12C812C80915C
:101B10007F02880D8D302CF1692D0E949229892F2A
:101B2000082E000C990B8E159F0591F480914603A9
:101B30008C9DA0018D9D500D11245595479555956F
:101B40004795980160914503809144030E943605B2
:101B50008B0CF1E0CF1AD108D1F68FEFE81AF80A12
:101B6000A9CF87FFDDCF8A0DDBCF815080937F0225
:101B7000BC82B1CF90E001966091450170E00E9477
:101B8000B42980937F028C83A6CFEF92FF921F939C
:101B9000CF93DF93EC0110E0EE24EA94F12C6091F6
:101BA0004501161770F00E940A0B9A818C8190FFF4
:101BB00027C08F5F8C83DF91CF911F91FF90EF90B3
:101BC000089520914301422F410F5527551FCA0107
:101BD0009A01220F331F280F391F215E3C4F70E0FE
:101BE000C7010E94B429962F8C81409146036091D1
:101BF0004503199F800D11240E9436051F5FCFCF2A
:101C00008150D8CF9091430390FF0EC09091430133
:101C10002091440133E0939FF0011124E15EFC4FD9
:101C2000921718F00E940A0B089581836083428303
:101C30009F5F3396F5CFA3E0B0E0E1E2FEE00C94C5
:101C40005D298C018091810281110AC09E012F5F64
:101C50003F4F44EB6FEF0E9436058A8180938102EB
:101C6000F8016481613069F08091810240E066236F
:101C700061F040E0623011F44091810280E060E068
:101C800004C06091810240E080E00E94020EF801F1
:101C9000848190E0019663E070E00E94B42984831F
:101CA0002396E4E00C947929A3E0B0E0EAE5FEE0B5
:101CB0000C945F299091430390FF0AC09E012F5F0F
:101CC0003F4F0E9436054B8169818A810E94020E36
:101CD0002396E2E00C947B29CF93DF93EC01E3E4BD
:101CE000F3E0438162818C810E94540E8C818F5F6E
:101CF0008C83DF91CF910895CF93DF93EC01EC813A
:101D0000F0E0EA55FC4F4491E3E4F3E06281818125
:101D10000E94540E8C818F5F8C83DF91CF91089548
:101D2000B0E0A0E0E6E9FEE00C9457297C015B01FD
:101D30006A0180913B0201E010E08A3010F40AE071
:101D400010E0C1E0D0E0B501C701F60109958111AD
:101D500004C021960C171D072CF4CDB7DEB7EAE0BE
:101D60000C947329CC9F9001CD9F300D300D112420
:101D700090E080E045E34A95F1F700000196821774
:101D80009307C1F7E0CF80911402811110C08091B8
:101D9000D80080618093D8008AE18A95F1F700C06D
:101DA0008091D90080FF0AC081E08093140281E015
:101DB00090911402913009F080E0089582E08093C0
:101DC00014020E9444031092D802F1CF0E94C30E65
:101DD000882359F0E091C202F091C302309729F0B4
:101DE0000190F081E02D0995089580E008950F930A
:101DF0001F930E94C30E882329F00E94B0041F91F4
:101E00000F9108950E94B00400913C0210913D0290
:101E100020913E0230913F02600F711F821F931F7D
:101E2000EECF0E94C30E882319F00E94BC040895CF
:101E30000E94F70ECB010895B0E0A0E0E2E2FFE0DF
:101E40000C945129FC016280448081E08483E6EA9D
:101E5000F3E07490E5E2F4E0E491C0914603C695A6
:101E6000C158D0E0CC0FDD1FCD2FDD27812C75E0D0
:101E7000972EAA24AA94B12C55245A94E719EE2E31
:101E8000F12C80914501881638F00E940A0BCDB7DD
:101E9000DEB7E0E10C946D29C82CD12C82E08615C8
:101EA00068F09C9CF0019D9CF00D1124EE57FD4FB5
:101EB000809144038083809145038183411023C036
:101EC0009C9CF0019D9CF00D1124EE57FD4F138258
:101ED000128220914301C601820F911D9C01220FA5
:101EE000331F280F391F215E3C4F9C9CF0019D9CA5
:101EF000F00D1124EE57FD4F4281618180810E94D7
:101F000036058394BECF9C9C80019D9C100D1124AE
:101F10000E571D4FF80183818823F1F08150838390
:101F2000859DC0011124648170E00E94A029FB01FD
:101F3000FF27EA55FC4F8491E82FE719E59DC00182
:101F40001124B7010E94A02980914603689FB00127
:101F50001124F8017283BDCF0E945F2AB5010E944F
:101F6000B4298C179D070CF0B4CFF2E0F61598F465
:101F70000E945F2AB5010E94B429F80180830E9463
:101F80005F2A209145032695622F70E00E94B429B4
:101F9000280FF80121839C9CF0019D9CF00D1124D9
:101FA000EE57FD4F128280914603893C58F088EC31
:101FB0009C9CF0019D9CF00D1124EE57FD4F8483F5
:101FC000838387CF8431A0F784E1F2CF609143030C
:101FD000669570E04BE050E083E391E00E946F2A49
:101FE000892B19F481E080937D020E94110F909358
:101FF00077028093760280917E02846080937E02D5
:102000000895B0E0A0E0E7E0F0E10C945529490123
:102010005A016B017C010E9420058401A4016A2DF4
:102020007B2D88E090E00E94C82A94014A2D5B2D08
:10203000B601C70100E20E94F829622F84E290E015
:102040000E94B62ACDB7DEB7ECE00C947129A3E06C
:10205000B0E0EDE2F0E10C945829082FE62EF42EC2
:10206000C22E9091430390FF40C020914403281357
:1020700008C080914503861304C0809146038417ED
:1020800029F080917E02826080937E02E92FE6959E
:10209000AE2FB0E0A157BE4F8C9180937C029E7F03
:1020A000923039F59E012F5F3F4F4F2D6E2D802FBF
:1020B0000E9436054B8169818A810E94020E00933D
:1020C0004403E0924503F0924603CC2071F0209146
:1020D00043036091470370914803302FA70180911B
:1020E000490390914A030E9401102396E9E00C9461
:1020F0007429823019F4F0904603E1CF8630A1F1C3
:10210000893091F18931D9F6E9516E2F6170B62E7F
:10211000E695F0E0EF55FC4F1491D12C609145010C
:10212000D61618F00E940A0BCACFD19EC001112406
:1021300070E00E94A029802FB11014C0860F20915A
:102140004301622F6D0D7727771F9B01220F331FED
:10215000260F371F215E3C4F4F2D6E2D0E943605F6
:10216000D394DCCF861BEBCF022FA9CFE3E4F3E0BF
:10217000438121E1421B08F440E021E0628181813A
:102180000E9427100895E3E4F3E0438121E1420F28
:1021900008F44FEF21E0628181810E9427100895A9
:1021A000E3E4F3E0628121E1621B08F460E021E0F6
:1021B000438181810E9427100895E3E4F3E0628166
:1021C00021E1620F08F46FEF21E0438181810E94D9
:1021D00027100895E3E4F3E0818121E043816281E7
:1021E0008A500E9427100895E3E4F3E0818121E002
:1021F00043816281865F0E94271008958091470382
:10220000882319F081508093470320914303309134
:1022100044034091450350914603609147037091F8
:1022200048038091490390914A030E940110089548
:1022300080914703833018F48F5F80934703209188
:10224000430330914403409145035091460360910C
:102250004703709148038091490390914A030E947B
:10226000011008959091430390FF39C0917081113E
:1022700037C092609093430380917E028160809387
:102280007E02662391F020914303309144034091F4
:102290004503509146036091470370914803809134
:1022A000490390914A030E9401106091430366958F
:1022B00070E04BE050E083E391E00E946F2A892BAD
:1022C000B1F00E94190581E08093790220E04091ED
:1022D000460360914503809144030E9427100895AE
:1022E0008B3210F09465C6CF880F982BC3CF0E9415
:1022F000E60FE9CF61E00E94321108958091430317
:102300008695815009F48AE261E00E9432110895B5
:102310008091430386958F5F8B3208F081E061E006
:102320000E94321108959091430390FF08C0969542
:10233000981728F0961718F40E94881108950E94A3
:102340007A110895E3E4F3E083E0808311828FEF54
:10235000828384EB83831482ACE7B2E012968C9183
:102360001297836012968C93758123E030E04FEFD3
:1023700054EB60E0868197810E940110089580915E
:10238000050290910402892B8093BC019091030275
:10239000992391F0892B8093BC0120E08EEB91E092
:1023A000FC013191CF0131112F5FF1E0843C9F0797
:1023B000B9F721111092030248E050E06BEF71E091
:1023C0008CEB91E00E947C2A892BA9F088E0ECEB51
:1023D000F1E0ABEFB1E001900D928A95E1F7E09169
:1023E000C202F091C302309731F00280F381E02DF8
:1023F0008CEB91E009950895882321F00E94A908AB
:102400000E94BF110895882339F090910502982BFE
:10241000909305020E94BF110895882309F456C0C5
:10242000823879F40E94E60E81FF50C089E30E9451
:10243000BD080E94BF1189E30E94B0080E94BF112D
:102440000895833859F40E94E60E80FF3FC083E56B
:102450000E94BD080E94BF1183E5EECF843859F475
:102460000E94E60E82FF32C087E40E94BD080E94EF
:10247000BF1187E4E1CF9CEF980F913AE8F290E228
:10248000980F983050F4877091E001C0990F8A95A9
:10249000EAF7892F0E94A908D1CF9BE5980F9330C6
:1024A00028F490E080E00E94ED04089598E5980FEC
:1024B0009B3128F490E080E00E94C804089593E3E3
:1024C000980F933118F460E00E94B0090895CF93FB
:1024D00010920502C6E0EEEBF1E0DF018C2F1D92B9
:1024E0008A95E9F790E080E00E94ED0490E080E0BA
:1024F0000E94C804109204020E94BF11E0E7F2E0BB
:10250000DF011D92CA95E9F71092690210926A02E2
:1025100010926B020E94CF05CF910895AAE2B0E01D
:10252000E4E9F2E10C945E298AED92E02091F10059
:10253000FC012193CF01F2E0823E9F07B9F7809121
:10254000DB02833009F470C0B8F4813009F447C06D
:10255000823009F4B1C08091E80083FF7EC280918F
:10256000DA029091DB029A3008F077C2E92FF0E0AE
:10257000E15BF44D0C94C8298A3009F48CC08B308F
:1025800009F46FC0893039F78091DA02813219F786
:102590008091DE029091DF020297E8F68091E800D8
:1025A000877F8093E8008091E80082FF38C0909197
:1025B000F3008091F200029731F48091F1008130B4
:1025C00011F0863021F48091F1008093CD0280914A
:1025D000E8008B778093E8000E949403BCCF809141
:1025E000DA02813A09F0B7CF8091E800877F8093C3
:1025F000E8008091DE029091DF02892B61F468E0AF
:102600008EEC92E070E00E9440048091E8008B77AD
:102610008093E800A0CF60E090E080E0F3CF80916D
:10262000D8028111C0CF97CF8091DA02813A09F0A8
:1026300092CF8091DE029091DF02892B09F08BCF3F
:102640008091E800877F8093E8008091E80080FF18
:10265000FCCF809146018093F1008091E8008E7755
:10266000B9CF8091DA02813209F075CF8091DE0214
:102670009091DF02892B09F06ECF8091E800877F6F
:102680008093E8000E9494038091DC0280934601CD
:102690000E94671260CF8091DA02813209F05BCF2D
:1026A0008091E800877F8093E8000E9494038091E6
:1026B000DD028093CC024FCF8091DA02813A09F09B
:1026C0004ACF8091E800877F8093E8008091E800FE
:1026D00080FFFCCF8091CC02BECF803899F0823849
:1026E00009F0BBC18091DE028F70873008F0B5C160
:1026F0008093E9008091EB0085FB882780F9109298
:10270000E90006C08091D6029091D70291118260B3
:102710009091E800977F9093E8008093F1001092E9
:10272000F1008091E8008E7794C1882309F482C17A
:10273000823009F092C18091DC02811185C18091C3
:10274000DE028F702FEF280F263008F086C18093AD
:10275000E9002091EB0020FF77C1933031F48091A4
:10276000EB0080628093EB006FC19091EB00906171
:102770009093EB0021E030E001C0220F8A95EAF748
:102780002093EA001092EA008091EB008860EACF83
:10279000811163C11091DC021F778091E300807882
:1027A000812B8093E3008091E800877F8093E8008D
:1027B0000E9494038091E80080FFFCCF8091E300A9
:1027C00080688093E30082E0111183E08093D80257
:1027D00044C18058823008F040C18091DC02909161
:1027E000DD028C3D23E09207A1F583E08A838AE233
:1027F00089834FB7F894DE01139620E03EE051E262
:10280000E32FF0E050935700E49120FF03C0E295DE
:10281000EF703F5FEF708E2F90E0EA30C0F0C79608
:102820008D939D932F5F243159F74FBF8091E8001E
:10283000877F8093E8006AE270E0CE0101960E94F3
:1028400040048091E8008B778093E80006C1C09631
:10285000E7CF4091DE025091DF02292F332723304A
:10286000310509F444C078F52130310509F46FC011
:102870008BE390E0E1E6F5E02230310509F0EDC0B0
:102880002091E800277F2093E8002091E00230911A
:10289000E1028217930708F49C0140E021153105FD
:1028A00009F064C0411162C08091E80082FDC9CF87
:1028B0008091D802882329F2853019F28091E800AE
:1028C00083FFF2CFBECF21323105A9F1223231058B
:1028D00009F0C3C04115510509F443C04130510509
:1028E00009F0BBC08BE790E0E6EAF4E0C9CF992796
:1028F00081309105C1F0009759F0029709F0ADC001
:10290000EEEAF5E0E4918E2F90E0EEEAF5E007C004
:10291000EAEDF5E0E4918E2F90E0EAEDF5E0009726
:1029200009F49BC0ADCFEAEBF5E0E4918E2F90E087
:10293000EAEBF5E0F4CF4115510571F04130510556
:1029400009F08BC089E090E0ECE8F5E099CF82E1F6
:1029500090E0ECE9F5E094CF89E090E0E3E7F5E082
:102960008FCF80E490E0E1E2F5E08ACF8091D80259
:10297000882309F466CF853009F463CF8091E8009D
:1029800083FD5FCF8091E80082FD8ECF8091E800CB
:1029900080FF84CF9091F3008091F20021153105E2
:1029A00019F08830910550F041E0089709F040E0B7
:1029B0008091E8008E778093E80070CF4491409337
:1029C000F1003196215031090196E8CF803809F0A5
:1029D00044C08091E800877F8093E8008091D9020D
:1029E0008093F1009ECE811138C01091DC0212302C
:1029F000A0F58091E800877F8093E8001093D902CA
:102A00000E949403112311F084E005C08091E3003B
:102A100087FDFACF81E08093D80242E061EC81E04B
:102A20000E94B30342E261EC82E00E94B303809112
:102A3000D80213C08091DC02813079F481E09330B8
:102A400009F080E08093D7021092E9008091E800BD
:102A5000877F8093E8000E9494038091E80083FFC1
:102A60000AC08091E800877F8093E8008091EB00A6
:102A700080628093EB00AA96E3E00C947A290E948E
:102A800067122FEF84E39CE0215080409040E1F7F3
:102A900000C0000087E797E7909301088093000843
:102AA00088E19AE00FB6F894A895809360000FBE75
:102AB00090936000FFCF0E9467122FEF84E39CE0A9
:102AC000215080409040E1F700C0000088E19AE08A
:102AD0000FB6F894A895809360000FBE90936000A5
:102AE000FFCFA4E0B0E0E7E7F5E10C945E29409168
:102AF0001E0250911F0260912002709121022FB797
:102B0000F8948091C7029091C802A091C902B09137
:102B1000CA022FBF841B950BA60BB70B11E084369E
:102B20009105A105B10570F10E94F70E6E5F7F4F10
:102B30008F4F9F4F69837A838B839C83809115018C
:102B4000909116018E5D9D4F4091140150E04530EB
:102B5000510510F044E050E0BE016F5F7F4F0E94CE
:102B6000892A82E090E00E94D928182F882351F00A
:102B70000E94B00460931E0270931F028093200293
:102B800090932102812F2496E3E00C947A29ABE004
:102B9000B0E0EDECF5E10C945F2988E0E3E4F3E0CC
:102BA000DE01119601900D928A95E1F780917C02E9
:102BB00090917D02A0917E0289879A87AB872B85B1
:102BC00040913702509138026091390270913A0277
:102BD0003FB7F8948091C7029091C802A091C902B2
:102BE000B091CA023FBF841B950BA60BB70B84366E
:102BF0009105A105B10510F4222319F180911D0161
:102C000090911E018E5D9D4F40911C0150E04C3013
:102C1000510510F04BE050E0BE016F5F7F4F0E9406
:102C2000892A83E090E00E94D928882369F00E94D5
:102C3000B004609337027093380280933902909306
:102C40003A0210927E0281E02B96E2E00C947B29FE
:102C5000EF92FF921F93CF93DF9300D000D000D06C
:102C6000CDB7DEB77B0190E080E00E94D928182F15
:102C7000882309F480C04091070150E041155105B7
:102C800011F041E050E060910801709109016E5D22
:102C90007D4FCE0106960E94892A40911A025091DA
:102CA0001B0260911C0270911D022FB7F894809155
:102CB000C7029091C802A091C902B091CA022FBF69
:102CC000841B950BA60BB70B84369105A105B105A6
:102CD00040F483E292E00E942D039E81891709F45B
:102CE0004AC081E090E00E94D928811116C010E00E
:102CF00085E0E5E1F2E0D70101900D928A95E1F7D8
:102D0000812F26960FB6F894DEBF0FBECDBFDF91A0
:102D1000CF911F91FF90EF90089540910F0150E0E7
:102D20004630510510F045E050E06091100170917F
:102D300011016E5D7D4FCE0101960E94892A83E2CA
:102D400092E00E942D039E818913D1CF0E94B0048E
:102D500060931A0270931B0280931C0290931D02D1
:102D600085E0FE013196A5E1B2E001900D928A95D1
:102D7000E1F711E0BDCF85E0E3E2F2E0DE0111967C
:102D800001900D928A95E1F71111EACFB1CFA5E13B
:102D9000B0E0EDECF6E10C9454298E01045F1F4F76
:102DA0008AE0D8011D928A95E9F782E8C82E81E071
:102DB000D82EF12CE12CAA24A394B12C2FE8822E3A
:102DC00021E0922EF60181916F018F3F09F442C0FC
:102DD000F894E82FE295EF70F0E021A18F70A50143
:102DE00002C0440F551F8A95E2F7CA01922F982B13
:102DF00091A392A18095892382A3789400C0E7E8EB
:102E0000F1E0712C31E021912F3F09F46BC0A22F2A
:102E1000A295AF70B0E090968C9190E02F7002C0B8
:102E2000959587952A95E2F780FD5CC0832F782AD7
:102E3000330F8E169F0639F7F601319780818F3F49
:102E400011F00E946F0650EA5A95F1F7F801EE0D65
:102E5000FF1D70828FEFE81AF80A95E0E916F10479
:102E600009F0B0CF4AE050E0B80180E492E00E945F
:102E70007C2A009741F02AE0F801A0E4B2E001903A
:102E80000D922A95E1F700914B02892B69F181E0BF
:102E900080930C020E94BC0490930B0280930A0260
:102EA00080910A0290910B020E94A104059700F103
:102EB00010E00F5A1D4F45E050E060E472E0C80199
:102EC0000E947C2AD12C892B51F085E0E0E4F2E0CD
:102ED000D80101900D928A95E1F7DD24D3941092E8
:102EE0000C0207C080E0A3CF80910C028111D8CFE3
:102EF000D12C0E94C30EC82EE0914B02DE01119628
:102F00007D01882309F46EC085E01D928A95E9F75A
:102F10000E2F10E00F5A1D4F80913B028A3090F522
:102F200048E256E1B701C8010E94900E882309F4D7
:102F300049C041E755E1B701C8010E94900E8823BE
:102F400009F440C047EC55E1B701C8010E94900E5A
:102F50008823C1F110923B0280914A0290E045E043
:102F600050E0B7018F5A9D4F0E947C2A21E02093A8
:102F70001302892BD9F4C12C8C2D8D296596EDE097
:102F80000C94702980910D0290910E020E94A10470
:102F9000843F914028F680911302882361F385E0F5
:102FA000F70111928A95E9F710921302A0914A0253
:102FB000B0E0AF5ABD4F85E0F70101900D928A95C0
:102FC000E1F7DACF80913B028F3F29F08F5F80934A
:102FD0003B028A3008F20E94BC0490930E02809358
:102FE0000D02D9CFF0E0EF5AFD4F85E0A3E2B2E049
:102FF00001900D928A95E1F783E292E00E942D0301
:10300000809322028090280290902902A0902A02A8
:10301000B0902B0280910F0290911002A0911102AA
:10302000B091120288169906AA06BB06D1F08092CA
:103030000F0290921002A0921102B09212020E940E
:10304000C30E81110EC00E94B004861A970AA80A06
:10305000B90A80923C0290923D02A0923E02B09248
:103060003F028BE0ECE2F2E0D70101900D928A95ED
:10307000E1F780912C028695F0902D02E0902E02CF
:10308000B0902F0200913502109136021092360254
:10309000112309F471CF10FF0BC0298190914303D4
:1030A00020FF1AC091609093430360E00E943211A8
:1030B00011FF06C020E04B2D6E2D8F2D0E94271092
:1030C00012FF04C00023A9F00E94E60F13FF54CFA3
:1030D00081E08093790250CF9E7F909343030E94BA
:1030E000190580917E02816080937E020E940A0B06
:1030F000DFCF0E941905EACFA8E0B0E0E2E8F8E1EE
:103100000C945F2966EE7EEF90E080E00E94D42A66
:1031100060E082E090E00E94B62A60E083E090E008
:103120000E94B62A109207021092060260E074E133
:1031300084E090E00E94D42A60E086E090E00E9463
:10314000B62A6FEF87E090E00E94B62A40E050E098
:10315000BA0188E090E00E94C82A60E084E290E032
:103160000E94B62A60E087E190E00E94B62A60E003
:103170008CE090E00E94B62A60E08DE090E00E9432
:10318000B62A19821A821B821C821D821E821F820D
:10319000188648E050E068E170E0CE0101960E9498
:1031A000A62A40E050E0BA0180E290E00E94C82ADE
:1031B00040E050E0BA018FE090E00E94C82A40E071
:1031C00050E0BA0183E190E00E94C82A2896E2E02C
:1031D0000C947B298B3109F464C040F58B3071F07D
:1031E00078F4863009F446C020F4853059F180E047
:1031F0000895873009F447C08830C9F781E0089501
:10320000803109F45CC068F48E3089F79091BF0278
:10321000892F8B7F92FF84608093BF0282FD4BC019
:10322000EDCF863159F3893149F3E1CF8A32F9F094
:1032300058F48732A9F020F48E31C8F28D514BC07A
:103240008932A9F60E943F15833440F48A3308F08E
:1032500041C0853329F0883389F2C9CF833439F6E8
:1032600081E090E00E9488090E946712C7CF0E9407
:103270007C18C4CF8091BF02807F8093BF0281E021
:103280008093BE0208959091BF02892F8E7F90FF98
:1032900081608093BF0280FDB1CF817F8093BF02A8
:1032A000ADCF9091BF02892F8D7F91FF8260809377
:1032B000BF0281FFA3CF8091BF028160EFCF9091C9
:1032C000BF02892F877F93FF88608093BF0283FDB1
:1032D000F2CF94CF895321E030E0A90102C0440F1E
:1032E000551F8A95E2F7CA01BDCFCF93C82F882317
:1032F000C9F08238C9F40E94E60E81FD13C089E34B
:103300000E94BD080E94BF112FEF87EE93E021506D
:1033100080409040E1F700C0000089E30E94B008BF
:103320000E94BF11CF9108958338A1F40E94E60E48
:1033300080FDF8CF83E50E94BD080E94BF112FEFEA
:1033400081EE94E0215080409040E1F700C0000001
:1033500083E5E4CF8438A1F40E94E60E82FDE2CF3B
:1033600087E40E94BD080E94BF112FEF81EE94E018
:10337000215080409040E1F700C0000087E4CECFAC
:103380008CEF8C0F813A08F0BFC08091BE02813073
:10339000F1F0882391F08230A9F11092BE02EEEB99
:1033A000F1E08191C81709F4E4C021E0E43CF207A0
:1033B000C1F78C2F0E94BD08B3CF809105028232E5
:1033C00071F78C2F0E94EA188111ACCFE8CF809161
:1033D00005028232B1F3C43171F038F4CB3049F0D8
:1033E000C03161F080E08170EFCFC93221F0C83385
:1033F000C9F781E0F8CF1092BE02F4CF82E080934B
:10340000BE02F7CFC93209F453C080F5C43109F4C4
:103410004FC0B0F4C73009F085CF81E080932D0113
:1034200084E180932E018AE0809330018EE18093C5
:103430002F0188E08093320188E28093310172CFBE
:1034400082EE8C0F8A3008F06DCFCD51C093CA0147
:10345000C33009F448C0C0F5C13009F441C08EE260
:1034600091E0C230C1F11092CA015CCFC03509F4BD
:1034700043C0C0F48AE0CF3409F054CFE091C801D2
:10348000F091C901309709F44DCF2081082E000C2E
:10349000990B820F911D8F3F910591F18CF18FEF68
:1034A000808340CFC13551F181E0C23539F33ACF45
:1034B0008091CA01882309F435CF1092CA01109275
:1034C000C9011092C8012ECFC53099F078F081E380
:1034D00091E0C63041F69093C9018093C80122CF94
:1034E0008DE291E0F8CF80E391E0F5CF8FE291E0BB
:1034F000F2CF82E391E0EFCF86EFC0CF8FEFBECF68
:1035000097FFCECF10820ECF80E28C0F883068F408
:10351000C77021E030E001C0220FCA95EAF7809120
:103520000502822B80930502FBCEEBE5EC0FE33026
:1035300040F4F0E0E95BFE4F808190E00E94ED04F2
:10354000F1CEE8E5EC0FEB3150F4F0E0EE0FFF1FA9
:10355000E65BFE4F808191810E94C804E3CE83E345
:103560008C0F833108F0DECE61E08C2F0E94B00911
:10357000D9CE8C2F0E94B0080E94BF111ACF0F9392
:103580001F93CF93DF93C62FD42F022FFC01858189
:103590008823A9F060931E030E94BC0490931D032E
:1035A00080931C03C77081E001C0880FCA95EAF7B9
:1035B0000E940312DF91CF911F910F910895809186
:1035C0001E03681335C080911C0390911D030E9457
:1035D000A104843B910560F510E21D0FCD17B9F0F1
:1035E00080E28C0F883040F4C77081E001C0880F02
:1035F000CA95EAF70E94FC11183048F481E09D2F2B
:10360000977001C0880F9A95EAF70E940312802FE5
:103610000E947519802F0E940D12183058F6D7702D
:1036200081E001C0880FDA95EAF70E94FC11C2CF51
:10363000C77081E001C0880FCA95EAF7F6CF909174
:103640004F0292FB222720F9281779F080FB92F98C
:1036500090934F0260914E0270914F0284E090E08F
:103660000E94D42A82E00E94CF0B0895B0E0A0E02F
:10367000ECE3FBE10C9457298C01FC018481882345
:10368000E9F121E0408151816281738195810E943D
:10369000880AEC018132F8E79F0779F080342EE741
:1036A000920789F1FC01E851FC47E730F10508F089
:1036B00057C0E75AF44D0C94C829F8018581882336
:1036C00071F08091C4010E947A110E94881180914A
:1036D0004303869590E09093C5018093C401809147
:1036E000FA01877059F0F8018581882339F08091BB
:1036F0004F0282FF03C082E00E94CF0BCDB7DEB73E
:10370000EAE00C947329F8018581882341F30E9433
:10371000A2118091430381608093430386950E94A8
:103720007A11D5CF26E241EE61EEC8010E94BF1AA0
:10373000D6CF27E245EE65EEF8CF26E241EE60EE09
:10374000F4CF27E245EE64EEF0CF26E241EE62EEE2
:10375000ECCF27E245EE66EEE8CF28E241E0EBCF82
:10376000F8018581882309F4ECC310921E03CE0171
:103770009057839708F0D1C384E090E00E94A02A7C
:1037800090934F0280934E02FE01E150F047E232E7
:10379000F10520F4E05AF44D0C94C82980914E02B2
:1037A000816080934E0295C080914F028860809323
:1037B0004F028FC080914E028260F3CF80914E0203
:1037C0008460EFCF80914E028860EBCF80914F02F2
:1037D0008160EDCF80914F028260E9CF80914E02EF
:1037E0008061DFCF80914E028062DBCF80914E02FC
:1037F0008064D7CF0E94671280914E028068D1CF3B
:1038000080914E028C60CDCF80914F028360CFCFEC
:1038100080914E028E7FC5CF80914F02877FC7CFA8
:1038200080914E028D7FBDCF80914E028B7FB9CFAC
:1038300080914E02877FB5CF80914F028E7FB7CFA8
:1038400080914F028D7FB3CF80914E028F7EA9CFA2
:1038500080914E028F7DA5CF80914E028F7BA1CFAC
:103860000E94671280914E028F779BCF80914E020B
:10387000837F97CF80914F028C7F99CF80914E02AA
:1038800082FB992790F921E0922790FB82F990FB27
:1038900083F987CF80914F02982F909591708E7FFA
:1038A000892B90FB81F983CF90914E02892F8F7BDA
:1038B00096FF806476CF0E94671290914E02892F06
:1038C00097FB87F980586DCF61E08EE090E00E9411
:1038D000B62A60914E0270914F0284E090E00E94FF
:1038E000D42A0E946712FBCE60E0EFCF90914E0287
:1038F000892F8F7E94FF806154CF90914E02892F43
:103900008E7F90FF81604DCF90914F02892F877FEE
:1039100093FF88604CCF85E30FC38091C60181116E
:1039200004C089E20E94B00809C385E3FBCF20915F
:10393000430320FF1DC02E7F209343033091440397
:1039400040914503509146036091470370914803AD
:103950008091490390914A030E9401100E94190529
:1039600080917E02816080937E020E940A0BB7CE16
:10397000822F81608093430386950E947A11AFCE97
:103980004EE751E168E871E10E941205A8CE48E8CF
:1039900051E16EE771E1F8CF4AEE50E164EF70E17A
:1039A000F3CF44EF50E16AEE70E1EECF40ED50E12D
:1039B0006DED70E1E9CF4DED50E160ED70E1E4CFE8
:1039C00046EB50E163EC70E1DFCF43EC50E166EB96
:1039D00070E1DACF4EEF50E168E171E1D5CF48E117
:1039E00051E16EEF70E1D0CF81E0C7CF65E082E0BA
:1039F0000E94931174CE68E086E0FACF6EE089E011
:103A0000F7CF64E18FE0F4CF67E185E1F1CF88E1A2
:103A1000B4CF62E289E1ECCF83E2AFCF6AE285E224
:103A2000E7CF0E943F156FEF7FEF90E080E00E94AC
:103A3000D42A0E945B1580914F0282FB882780F96F
:103A400091E089270E941F1BF8018581C081D181E7
:103A5000882309F44AC0CE010E94E008F82E682F9E
:103A6000CE010E945309BE018F2D0E946B070E9458
:103A70008B07D82FC92FA82EF801C580B680B29425
:103A80003FE0B3228091FA018770F1F0EC2CCC205A
:103A9000E1F0892F807F803451F080E28D0F8830F3
:103AA00098F0B11004C0892F807E803269F0809137
:103AB0004F0282FF09C082E00E94CF0B8091FA0181
:103AC0008770EE24E3948111E12CDC2ED2942FE058
:103AD000D222FBE0FD1508F46DC0ED2DF0E0EE57AD
:103AE000F44D0C94C82980E0ADCFCE010E9421098D
:103AF000F82EB9CF2C2F2F70F22EC07F19F0F29430
:103B000090EFF922CC20B9F0FF2069F080E28D0F10
:103B1000883010F0A11009C080910502F82AF092B7
:103B200005020E94BF118D2F43C080910402F82A24
:103B3000F0920402F6CF8D2F0E940D12FF20D1F1DA
:103B4000D05ED83010F0A11004C08F2D0E94A908BB
:103B500006C0F09480910402F822F09204020E94C0
:103B6000BF1128C03C2F3F70F32EC07FC03219F028
:103B7000F29480EFF822AA2059F081E0A81609F407
:103B800079C0CC2009F485C0BB2009F447C0CBCF55
:103B900080914F0282FD3EC0CC20B1F1FF2039F070
:103BA00080910502F82AF09205020E94BF1180E080
:103BB0000E9475192D2D2850330B2430310510F437
:103BC0000E94E60EEE20A9F08091FA0180FD11C05E
:103BD000F80115828695869586950E94E60BC801A8
:103BE0000E94361B8091FA018695869586950E94E3
:103BF000BD0B20E0F8014081518162817381848195
:103C000095810E94880A7ACD80E00E940D12FF20E3
:103C100089F29BCFCC20A1F0B11004C08F2D0E945F
:103C20000312C8CF91E0B912C5CF809103029F2D36
:103C30009823F91609F4BECFF82AF0920302BACFFE
:103C4000B110B8CF8F2D0E94FC11909103028F2DDF
:103C5000892329F08F2D80958923809303028091F9
:103C6000C7019F2D982309F4A5CFF094F822F09274
:103C7000C701A0CFCC2029F0E5E0EB1508F49ACFDE
:103C8000CDCFF4E0FB1508F495CF8F2D0E94FC11E9
:103C900091CFBB20D1F329E3A21209C03FEF87EEF9
:103CA00093E0315080409040E1F700C000008D2F3C
:103CB0000E940D127FCF8C2F86958695837069F0B8
:103CC000813009F077CF8D2F9C2F9370C11002C0E7
:103CD00080E090E00E94C8046DCF8D2F9C2F9370E0
:103CE000C11002C080E090E00E94ED0463CF6C2D13
:103CF0008D2F0E94B0095ECF8C2F837009F03FC0DA
:103D0000C11058CF4D2F429546954770440F440F30
:103D10002D2F2F7030E0042E02C0220F331F0A9483
:103D2000E2F790E080E0D4FF09C08FE090E002C0AD
:103D3000880F991F4A95E2F780959095C695C6958C
:103D4000C370C23099F078F4409106025091070296
:103D5000C13039F0822B932B842395230E9488094C
:103D600029CF242B352B822B932BF8CF822B932B0F
:103D7000209106023091070282279327EFCF869584
:103D8000CC2011F08C2F8170882309F413CF4D2F94
:103D9000429546954770440F440F2D2F2F7030E009
:103DA000042E02C0220F331F0A94E2F790E080E055
:103DB000D4FF09C08FE090E002C0880F991F4A9598
:103DC000E2F780959095C695C695C370C23099F07C
:103DD00078F440914C0250914D02C13039F0822B61
:103DE000932B842395230E94B60BE4CE242B352BF2
:103DF000822B932BF8CF822B932B20914C02309166
:103E00004D0282279327EFCFCF70CC2029F08C2F43
:103E10000E94E60B8D2F03CF8D2F0E94FC118C2F5B
:103E20000E94BD0BC7CE8D2FE2EFAE1699F1EA15B9
:103E300070F0F0EFAF16D1F021EFA21691F0CC2088
:103E400009F45BC0B1106FCE8C2F8F7127C033EF98
:103E5000A31639F194EFA912F2CF80914F0282FD9F
:103E60002EC08C2F8F71CC20D9F218C0CC2069F0D5
:103E7000E4E0EB1508F49ECECF7181E090E002C043
:103E8000880F991FCA95E2F7B8CFF5E0FB1508F443
:103E900091CEF2CF8C2F8F71C110C2CF0E94E60B52
:103EA00089CE90E080E0CC2009F49DCFCF7181E0F5
:103EB00090E002C0880F991FCA95E2F794CFCC20FA
:103EC00089F0CF718C2F0E94E60B80914F0282FF08
:103ED00007C028E0C29FC001112483608093FA01CB
:103EE0008C2FDCCF81E00E94CF0B31E03B1508F036
:103EF00061CE82E00E94CF0B5DCEBB2059F08933AA
:103F000009F0D5CE8FEF97EEE3E081509040E0408E
:103F1000E1F7CBCE8C2F8F7183CFC631FCE7DF0763
:103F200019F5809105028A7A91E009F490E0909366
:103F3000C6018111F0CC89E20E94BD080E94BF1128
:103F4000CECBC6312CE7D20709F4E7CC809105022D
:103F50008272FE01E052F847E531F10508F074CDB8
:103F6000E257F44D0C94C829C3303CE7D30709F459
:103F70005ACD50F4C1159CE7D90709F452CDC13090
:103F8000DC4709F456CD60CDCB35FCE7DF0709F4FB
:103F9000AACDCC352CE7D20709F44DCDCA35DC4784
:103FA00009F052CD81E04ECDCF93DF938091F9019E
:103FB000807F09F04DC08091F801882309F448C042
:103FC000E0911B035091E202C091F401D091F30102
:103FD0006091F5017091F60147E05E17C9F18E2FEF
:103FE00090E0E49FF0011124ED51FD4F2481222344
:103FF00091F1489FF001499FF00D1124DF01AD516F
:10400000BD4F11962C9111972C1325C02C912D1377
:1040100022C015962C91159721111DC012962D9135
:104020003C91261B370B243B3105A8F48091F90104
:104030008F7080618093F901E751FD4F80818F700F
:104040008061808383EF91E00E94361B0E94D60836
:10405000DF91CF910895FC013196E770BECFA4E1C6
:10406000B0E0E5E3F0E20C9455298C0186E0F8011C
:10407000DE011F9601900D928A95E1F7F801848187
:10408000E58093EFA92E91E0B92E9091F70191115F
:1040900028C0882319F1EE20F1F0C8010E948D0993
:1040A000F82E8823C1F087E0F801D50101900D9228
:1040B0008A95E1F78091F701813031F48091F30125
:1040C0009091F4010E9414090E94D41F8F2D6496D0
:1040D000ECE00C947129C8010E94361BFF24F39474
:1040E000F5CFD080C18082809380F090F80120913C
:1040F000F5013091F601A401421B530BFF2009F496
:10410000E5C0443B510508F09EC08823F9F2909128
:10411000F4018091F901282F207F09F056C0C912BF
:1041200014C09091F301D91210C0E11048C08F70F3
:1041300080618093F90183EF91E00E94361B8091AA
:10414000F901F8018683F12CC1CFE11038C06C2D44
:104150008D2D0E940E036C2D8D2D0E940E03E82ED6
:104160008111F1CFDF86C88A8F8598890E94140952
:10417000292F22952F70243058F49F70223088F018
:10418000992399F0F8019681907F79F4FE2C9ECFC7
:104190002A5F2F70223068F0C8010E94361BEF2C76
:1041A000F5CF992311F0882389F3805E883070F36E
:1041B000F3CF803F58F3815F833070F7E7CF809172
:1041C000F90181608093F901BECFC91213C09091AB
:1041D000F301D9120FC0E1100DC08683C8010E94FF
:1041E000361B87E0F801A3EFB1E001900D928A95AC
:1041F000E1F76CCFC8010E948D09882309F46BCFC9
:10420000EE2009F468CF8091F901803288F0209186
:10421000F3013091F401398728879B868A86909133
:10422000F7019C871D868E87CE0108960E94361B5B
:1042300087E0F801A3EFB1E001900D928A95E1F7D4
:104240000E94D41F4BCF9091F901292F207F51F468
:1042500083EF91E00E94361B87E0F50111928A9569
:10426000E9F771CF882309F431CF8091F4018C11E3
:1042700010C08091F301D8120CC0E1100AC09683DF
:10428000C8010E94361B87E0F50111928A95E9F773
:104290001DCFC8010E948D09882309F41CCFEE2090
:1042A00009F419CF8091F901803210F22091F301C5
:1042B0003091F4013A8329839C828B829091F7019B
:1042C0009D831E828F83CE010196B0CF443B510562
:1042D000D0F6882309F402CFFE2CEE2009F4FBCEA1
:1042E0008091F4018C1105C08091F301D81609F476
:1042F00078CFC8010E948D0981119ACF8091F90170
:1043000081608093F901C8010E94361BDFCEABE1CA
:10431000B0E0EDE8F1E20C945D294E8B5F8B688F85
:10432000798F8A8F9B8F192F9111109204021D8A09
:1043300086E0FE017696DE011F9601900D928A9529
:10434000E1F70A8D002341F021E04F855889698902
:104350007A89C8010E94880A0B8B1C8B87E0FE01BA
:104360003F96DE01189601900D928A95E1F7CE01F5
:1043700008960E942F2081110CC087E0FE0138961C
:10438000DE01119601900D928A95E1F78C858111DD
:104390000BC017E080911B039091E202891331C09A
:1043A0006B96E4E00C9479292091E20230E0C90197
:1043B00001968770992740911B034817190699F0B9
:1043C00097E0929FD001939FB00D1124AD51BD4F46
:1043D000FE01319601900D929A95E1F78093E202E9
:1043E0000E94D608D6CF0E9467121092E202109265
:1043F0001B0387E0E3EFF1E0DF011D928A95E9F707
:10440000C8CF819FC00111248D519D4F0E942F2044
:10441000882331F280911B0390E0019687709927E1
:1044200080931B03B7CFA6E0B0E0E9E1F2E20C9481
:104430005D290E94BC048C018091080290910902C0
:104440008017910781F019821A820E94BC04682F9C
:1044500049815A81792F80E090E00E948721109352
:104460000902009308022696E4E00C9479291F9231
:104470000F920FB60F9211242F933F934F935F9398
:104480006F937F938F939F93AF93BF93CF93DF935C
:10449000EF93FF93D091E900DF708091EC00C82F7B
:1044A000C17080FDC0E81092E9008091F000877F24
:1044B0008093F00078940E948E121092E90080910F
:1044C000F00088608093F000CD2BCF70C093E9009E
:1044D000FF91EF91DF91CF91BF91AF919F918F911C
:1044E0007F916F915F914F913F912F910F900FBEF0
:1044F0000F901F9018951F920F920FB60F921124D4
:104500002F933F934F935F936F937F938F939F93DB
:10451000AF93BF93EF93FF938091E10082FF09C0B7
:104520008091E20082FF05C08091E1008B7F809343
:10453000E1008091DA0080FF24C08091D80080FFE4
:1045400020C08091DA008E7F8093DA008091D900BC
:1045500080FF9DC080E189BD82E189BD09B400FE74
:10456000FDCF81E08093D8028091CB02811109C0F8
:104570000E9444030E94E5038091E20084608093DE
:10458000E2008091E10080FF17C08091E20080FF8F
:1045900013C08091E2008E7F8093E2008091E20060
:1045A00080618093E2008091D80080628093D8007F
:1045B00019BC85E08093D8028091E10084FF2BC074
:1045C0008091E20084FF27C080E189BD82E189BD3E
:1045D00089B5982F917080FFFBCF8091D8008F7D97
:1045E0008093D8008091E1008F7E8093E1008091DC
:1045F000E2008F7E8093E2008091E20081608093F0
:10460000E2008091D902882309F447C084E08093B6
:10461000D8028091D8028091E10083FF27C0809169
:10462000E20083FF23C08091E100877F8093E10057
:1046300082E08093D8021092D9028091E1008E7FAF
:104640008093E1008091E2008E7F8093E200809170
:10465000E20080618093E20042E060E080E00E943E
:10466000B3038091F00088608093F000FF91EF9198
:10467000BF91AF919F918F917F916F915F914F917A
:104680003F912F910F900FBE0F901F90189519BC5E
:104690001092D8021092CB0274CF8091E30087FD74
:1046A00093E09093D802B5CF78941F921FB61F92D3
:1046B00011248F939F93AF93BF938091C7029091E2
:1046C000C802A091C902B091CA020196A11DB11DF4
:1046D0008093C7029093C802A093C902B093CA0204
:1046E000BF91AF919F918F911F901FBE1F90189502
:1046F0001F921FB61F9211248F939F93AF93BF9366
:104700008091C602811113C08091C7029091C802A6
:10471000A091C902B091CA024196A11DB11D80931A
:10472000C7029093C802A093C902B093CA02BF9176
:10473000AF919F918F911F901FBE1F901895CDB77D
:10474000DEB72C970FB6F894DEBF0FBECDBF85B78E
:10475000806885BF85B7806885BF84B7877F84BF41
:104760000FB6F894A89580916000886180936000EE
:10477000109260000FBE80E890E00FB6F89480932E
:104780006100909361000FBE8DE696E09093BB01AF
:104790008093BA010E9444030E94E5038091E200E5
:1047A00084608093E20078948091D8028823A1F0FD
:1047B0001091E9001F709091EC00892F817090FD9D
:1047C00080E8182B1092E9008091E80083FD0E9498
:1047D0008E121F701093E90082E084BD93E095BDB6
:1047E0009AEF97BD80936E0010923C0210923D02AA
:1047F00010923E0210923F0226982E988FE891E088
:104800000197F1F700C0000083B186FB882780F98B
:104810008093240180912401882309F451C11092CE
:10482000410186E0809342010E94C30E81110E94E3
:10483000ED27809124018091240195E0811190E081
:1048400090934B0285E0891B80934A0202E811E0B5
:1048500097E8E92E91E0F92ED8018D918D018F3FD7
:1048600011F00E946F06E016F106B1F707E811E0BB
:104870008FE8E82E81E0F82EF80181918F018F3FBB
:1048800011F00E946F06E016F106B1F78AE0E1E54B
:10489000F2E0DF01282F1D922A95E9F7E0E4F2E02B
:1048A000DF011D928A95E9F790E080E00E94A02A3E
:1048B000863E9E4F11F00E947C1882E090E00E949C
:1048C000922A8093BF0284E090E00E94A02A9093F5
:1048D0004F0280934E0283E090E00E94922A90E083
:1048E0000E94880980914C0290914D020E94730BA6
:1048F0008091500281117BC090E080E00E94A02A4C
:10490000863E9E4F21F00E947C180E94A21188E0F2
:1049100090E00E949A2A4B015C0184E290E00E94A0
:10492000922A282F30E040E050E060E070E080E024
:1049300090E000E20E94DD29282939294A295B29D3
:10494000209343033093440340934503509346031D
:1049500060934703709348038093490390934A03FD
:1049600080917E02836080937E022E7F89F50E9473
:10497000A21188E090E00E949A2A6B017C0184E2F7
:1049800090E00E94922A282F30E040E050E060E062
:1049900070E080E090E00E94DD29B22FA32FF42F79
:1049A000E52F5B0197018601BC29A12BFE29E32B92
:1049B000B0934303A0934403F0934503E09346036D
:1049C00060934703B09248038093490390934A034E
:1049D0000E9420050E9419058091430380FF04C0B6
:1049E00060E086950E94321181E0809350020E941F
:1049F000C30E811102C00E94F02785E291E09093DE
:104A0000C3028093C20218E1612E712C0BE5C02E07
:104A100002E0D02EB5E6AB2EB2E0BB2E8091D802DC
:104A200000E112E1853009F483C00E94C7160BE54E
:104A300012E0A1E5EA2EA2E0FA2ED701F801919149
:104A40008D91AE16BF0609F47DC09817C1F30E9480
:104A5000C30E282E912CD7018D907D01F801319045
:104A60008F01381431F13824512C44244394832D80
:104A70008421B9F02220A9F05F8298860E94BC04AC
:104A80009A878987F1E0FB8791E0882D842109F4DA
:104A900090E09C874F81588569857A858B850E9437
:104AA00087215394440C28E05212E1CFF80131974A
:104AB000808293944AE09412CECF0E94F70E46C0B3
:104AC00086E080934101AECE8091D802843011F10E
:104AD0001092C602F0E40FB6F894A89560926000B8
:104AE0000FBEF093600083B7817F846083BF83B77C
:104AF000816083BF7894889583B78E7F83BF0FB61C
:104B0000F894A8958091600088618093600010926D
:104B100060000FBE8091D702882351F00E94C71613
:104B2000E1E5F2E081918111E3C1CE16DF06D1F714
:104B30008091D802853009F4C7CF0E9467120E9485
:104B4000E60E73CF981383CF0E9413220E94C30EE8
:104B500080917D02882309F464C080917C02E091F9
:104B60004303E695E81BE0937802823009F0FDC02C
:104B7000F0E0E356FD4FE4910E2F10E0FCE7EF2E3E
:104B8000FEE0FF2E80917902882361F01092790275
:104B90000E94110F909377028093760210927B020D
:104BA00010927A020E94110FE0917602F091770242
:104BB0009C012E1B3F0B2F3F3F4798F5209167022A
:104BC0002223B1F0109267022091650230916602B3
:104BD000821B930B8F3F9F4758F4205D3A483093D8
:104BE00066022093650280917E02886080937E0237
:104BF00080907A0290907B02E00FF11FF093770291
:104C0000E093760286E792E0F701099580917A02B7
:104C100090917B02892B29F4892819F081E08093F7
:104C2000670286E0E0E7F2E0DE01119601900D9266
:104C30008A95E1F710927202109273021092740238
:104C4000109275028B819C81892B91F080916E026C
:104C500090916F020E94A104AC0190916902992386
:104C600009F4EFC080912E018417150608F4F7C0EF
:104C70008D819E81892B09F44AC080916C029091AC
:104C80006D020E94A1049C0190916A02992309F48B
:104C900045C121353105D8F19F3F19F09F5F9093B1
:104CA0006A021D81112359F00E94F6059FEF11162B
:104CB0000CF491E0899F802D1124809374021E8151
:104CC000112359F00E94F6059FEF11160CF491E0A4
:104CD000899F802D112480937502309174023323B3
:104CE000B1F020917502222391F045EB3403C0010D
:104CF0001124992309F4F4C09093740245EB240322
:104D000090011124332309F4EFC03093750246E07B
:104D100050E0BE016F5F7F4F80E792E00E947C2AE7
:104D2000892B61F48091720290917302892B90918A
:104D30007402892B90917502892B11F00E94CF0586
:104D400086E0FE013196A0E7B2E001900D928A95CF
:104D5000E1F70E94E60E90916802891709F45ECE91
:104D6000809368020E94B00455CE863059F4F0E07A
:104D7000E656FD4FE4910E2F10E0ECE6EE2EEEE04D
:104D8000FE2E00CF893061F4E695F0E0E956FD4F44
:104D9000E4910E2F10E075ECE72E7DE0F72EF2CEB9
:104DA0008F3061F4E695F0E0EC56FD4FE4910E2F64
:104DB00010E06AE3E62E6DE0F62EE4CE853159F47C
:104DC000F0E0EF56FD4FE4910E2F10E055EBE52E8D
:104DD0005CE0F52ED7CE08E210E023E3E22E2CE0D3
:104DE000F22E883109F4CECE833249F4EFE8F2E0B6
:104DF000059114914BE1E42E4EE0F42EC3CE04EF66
:104E000011E096EFE92E9BE0F92E843209F4BACE38
:104E1000853281F48E2F63E00E948629E92FF0E02D
:104E2000E457FD4FE4910E2F10E03CE1E32E3FE00C
:104E3000F32EA8CE00ED17E088E1E82E85E0F82EED
:104E4000A1CE20912D01FAE02F9F9001112424176B
:104E5000350708F00DCF9F5F9093690202C09F3F16
:104E6000D1F71B81112359F00E942F069FEF1116D5
:104E70000CF491E0899F802D1124809372021C8193
:104E8000112359F00E942F069FEF11160CF491E0A8
:104E9000899F802D112480937302309172023323F5
:104EA00009F4E6CE20917302222309F4E1CE45EB0A
:104EB0003403C0011124992359F09093720245EBF9
:104EC000240390011124332339F030937302D0CEA0
:104ED00081E080937202F3CF81E080937302C8CEA9
:104EE00081E0809374020ACF81E0809375020FCF36
:104EF00009BD19BD09B400FEFDCF8091D8008F7D9A
:104F00008093D8008091E00082608093E0008091DF
:104F1000E00081FDFCCF0E9467120ACE2B303105E4
:104F200008F0BCCEF4CE8EE14A9B02C08150E1F77E
:104F30004A9BFECF08955A9880E28A95F1F75A9AD3
:104F40000895FC013BE03A95F1F798E020E080E01D
:104F500031E040E14A95F1F7880F4A9B02C0816039
:104F6000232742E04A95F1F7000040E14A95F1F726
:104F7000915079F790E19A95F1F799B132E03A952D
:104F8000F1F7000040E14A95F1F792FB992790F97B
:104F900092272081920F90830895A1E0B0E0E3ED85
:104FA000F7E20C945B2919828C017C01E60EF11C5E
:104FB0000E151F0541F481E09981911180E0219641
:104FC000E6E00C9477290E949327CE0101960E9477
:104FD000A127F80181938F01EBCF529A5A9A089535
:104FE00052985A9AEA9AE9E6F0E080818F7C8083B1
:104FF00008956150770B91E001C0990F6A95EAF727
:1050000020E031E0911108C0222391F05A9A80E209
:105010008A95F1F75A980895492F482339F05A9AFA
:10502000232740E24A95F1F79695ECCF5A98F9CFAD
:105030005A98EDCFFF920F931F93CF93DF93EC011C
:105040008C01060F111DC017D10729F4CDB7DEB7AB
:10505000E5E00C947829F9900E949B2768E08F2D59
:105060000E94F927F0CF1F920F920FB60F921124D2
:105070000F931F932F933F934F935F936F937F9360
:105080008F939F93AF93BF93EF93FF93CF93DF9350
:105090000F92CDB7DEB719820E949327CE010196F9
:1050A0000E94A127082F069506950695282F229580
:1050B0002570902F9570290F922F93702695269525
:1050C000920F982797708981982B09F05CC0053062
:1050D00008F059C080E18A95F1F75A9A529A82E015
:1050E0008A95F1F700C05A9888E0089F8001112442
:1050F000D801AC5FBE4F1696ED91FC911797309793
:10510000A9F0609180017091810114962D913C91DC
:105110001597260F371F11968D919C911297680F46
:10512000791F13964C9113978C910995F801EC5FB8
:10513000FE4F6381662351F02091800130918101FF
:1051400084819581820F931F0E941A280E949B27B9
:1051500080E18A95F1F75A9852985A9A80E18A9597
:10516000F1F7F801EC5FFE4F6081662351F020916A
:1051700080013091810181819281820F931F0E9471
:10518000CD270E9493270F90DF91CF91FF91EF9150
:10519000BF91AF919F918F917F916F915F914F914F
:1051A0003F912F911F910F910F900FBE0F901F9065
:1051B00018950F931F93CF93DF93EC0105970CF095
:1051C0004CC0F894529A5A9885E08A95F1F70000FD
:1051D0009C2F969595708C2F8570980F892F8370D2
:1051E0009695969523E0CC0FDD1F2A95E1F7980F51
:1051F0008E01092B0E949B2700C068E0802F0E942F
:10520000F92780E18A95F1F752985A9A4A9B1EC075
:1052100087E090E04A991CC0FE01EC5FFE4F63817D
:105220006623F9F02091800130918101848195817C
:10523000820F931F0E94CD27811113C0529A5A9A50
:105240007894DF91CF911F910F91089500C0DECF28
:10525000019729F4529A5A9A789480E0F2CF00C0CC
:10526000D9CF0E94932780E28A95F1F75A98529AF3
:1052700080E18A95F1F7CC5FDE4F6881662351F0BB
:10528000209180013091810189819A81820F931F41
:105290000E941A280E949B27789481E0D2CF2F92F7
:1052A0003F924F925F926F927F928F929F92AF92B6
:1052B000BF92CF92DF92EF92FF920F931F93CF9303
:1052C000DF93CDB7DEB7CA1BDB0B0FB6F894DEBF9A
:1052D0000FBECDBF09942A88398848885F846E84C0
:1052E0007D848C849B84AA84B984C884DF80EE800A
:1052F000FD800C811B81AA81B981CE0FD11D0FB613
:10530000F894DEBF0FBECDBFED010895991B79E083
:1053100004C0991F961708F0961B881F7A95C9F745
:105320008095089587FB082E062687FD819567FDE9
:1053300061950E9486290EF4919507FC8195089548
:10534000AA1BBB1B51E107C0AA1FBB1FA617B707AB
:1053500010F0A61BB70B881F991F5A95A9F78095C7
:105360009095BC01CD01089597FB072E16F400948B
:1053700007D077FD09D00E94A02907FC05D03EF494
:10538000909581959F4F0895709561957F4F0895F1
:10539000EE0FFF1F0590F491E02D09940E943E2B23
:1053A000332312F48A1B9B0B0C94D8290E943E2BAA
:1053B000B7FF0895821B930B0895002E083090F0DC
:1053C000982F872F762F652F542F432F322F222788
:1053D0000850F4CF220F331F441F551F661F771F3D
:1053E000881F991F0A95B2F7002D089597FD109414
:1053F000002E083098F00850232F342F452F562FB9
:10540000672F782F892F912DF4CF15949795879535
:105410007795679557954795379527950A95AAF7F4
:105420001124002D08958F929F92AF92BF92CF9238
:10543000DF92EF92FF92CF93DF93EC016881798145
:105440008A819B81611571058105910521F464E2D2
:1054500079ED8BE597E02DE133EF41E050E00E94DC
:10546000EA2A49015A019B01AC01A7EAB1E40E9472
:10547000092B6B017C01ACEEB4EFA50194010E94F5
:10548000172BDC01CB018C0D9D1DAE1DBF1DB7FF81
:1054900003C00197A109B04888839983AA83BB837D
:1054A0009F77DF91CF91FF90EF90DF90CF90BF90EB
:1054B000AF909F908F9008950E94132A089580E0E6
:1054C00091E00E94132A0895B0E0A0E080930001CB
:1054D00090930101A0930201B09303010895FC0190
:1054E0004150504030F001900616D1F73197CF016E
:1054F0000895882799270895FB01DC0104C08D9148
:105500000190801921F441505040C8F7881B990B35
:105510000895FB01DC0102C001900D924150504002
:10552000D8F70895F999FECF92BD81BDF89A9927D1
:1055300080B50895A6E1B0E044E050E00C94DC2A88
:10554000A8E1B0E042E050E00C94DC2ADC01A40FBA
:10555000B51F4150504048F0CB01840F951F2E914C
:105560000E94B72A41505040D0F70895262FF9994C
:10557000FECF92BD81BDF89A019700B4021639F0B2
:105580001FBA20BD0FB6F894FA9AF99A0FBE089583
:105590000396272F0E94B72A0E94B62A252F0E9421
:1055A000B72A242F0C94B72A0196272F0E94B72AD6
:1055B0000C94B62ADC01CB01FC01F999FECF06C0A0
:1055C000F2BDE1BDF89A319600B40D9241505040C1
:1055D000B8F70895052E97FB1EF400940E94012B46
:1055E00057FD07D00E941C2B07FC03D04EF40C94EF
:1055F000012B50954095309521953F4F4F4F5F4F70
:10560000089590958095709561957F4F8F4F9F4F2E
:1056100008950E943E2BA59F900DB49F900DA49FCE
:10562000800D911D11240895B7FF0C94092B0E9441
:10563000092B821B930B0895A1E21A2EAA1BBB1BF8
:10564000FD010DC0AA1FBB1FEE1FFF1FA217B3074E
:10565000E407F50720F0A21BB30BE40BF50B661F64
:10566000771F881F991F1A9469F760957095809528
:1056700090959B01AC01BD01CF010895A29FB0019F
:10568000B39FC001A39F700D811D1124911DB29F76
:10569000700D811D1124911D0895F894FFCF6D1395
:1056A00095132D1595132D15C813E9132D15E61413
:1056B000F3149D1BA11B921B991BA51BA91BAD1BC2
:1056C000081C7D1C101CDA1BDE1B141CE21B181CA2
:1056D000241CEE1B761CF21B281CF61B2C1C541CD5
:1056E000FA1B301C5B1C001C361C3E1CE61B1C1CE1
:1056F000EA1B201C041C3A1C4A1C641C741CD41B8E
:105700000C1C841C7A1D7A1DB21DB21D5B1E771EF7
:10571000DA1DDA1D7C1E041F131F131F971CC01CEB
:10572000C71CCC1CD11CD61CDB1CE01CE51CEA1CD5
:10573000EF1CF41CF61CFB1CFE1C011D041D071DA8
:06574000091D0C1D0E1DE9
:10574600010000000000000100000000000000054C
:105756000100000004060000000000000B0A000023
:1057660000000000019E04F60AEF0AE80A01141E72
:105776000A280801191A1B1C1D1E1F2021220102BE
:1057860001000C000C0C01818283E200E900EA00B2
:10579600B500B600B700CD008301CC008A019201A6
:1057A60094012102230224022502260227022A024C
:1057B600B300B4006F0070009F01CB019F02A002EE
:1057C6002202946697C634F4F5F6F7313332350083
:1057D60001020202020606060909090909090F0F54
:1057E6000F0F0F0F15151518191919191919191958
:0A57F6001919232425252525252552
:00000001FF
